{
  "_format": "hh-sol-artifact-1",
  "contractName": "Ourtube",
  "sourceName": "contracts/youtube.sol",
  "abi": [
    {
      "inputs": [],
      "stateMutability": "nonpayable",
      "type": "constructor"
    },
    {
      "anonymous": false,
      "inputs": [
        {
          "indexed": false,
          "internalType": "uint256",
          "name": "id",
          "type": "uint256"
        },
        {
          "indexed": false,
          "internalType": "string",
          "name": "hash",
          "type": "string"
        },
        {
          "indexed": false,
          "internalType": "string",
          "name": "title",
          "type": "string"
        },
        {
          "indexed": false,
          "internalType": "string",
          "name": "description",
          "type": "string"
        },
        {
          "indexed": false,
          "internalType": "string",
          "name": "location",
          "type": "string"
        },
        {
          "indexed": false,
          "internalType": "string",
          "name": "category",
          "type": "string"
        },
        {
          "indexed": false,
          "internalType": "string",
          "name": "thumbnailHash",
          "type": "string"
        },
        {
          "indexed": false,
          "internalType": "bool",
          "name": "isAudio",
          "type": "bool"
        },
        {
          "indexed": false,
          "internalType": "string",
          "name": "date",
          "type": "string"
        },
        {
          "indexed": false,
          "internalType": "address",
          "name": "author",
          "type": "address"
        }
      ],
      "name": "VideoUploaded",
      "type": "event"
    },
    {
      "inputs": [],
      "name": "name",
      "outputs": [
        {
          "internalType": "string",
          "name": "",
          "type": "string"
        }
      ],
      "stateMutability": "view",
      "type": "function"
    },
    {
      "inputs": [
        {
          "internalType": "string",
          "name": "_videoHash",
          "type": "string"
        },
        {
          "internalType": "string",
          "name": "_title",
          "type": "string"
        },
        {
          "internalType": "string",
          "name": "_description",
          "type": "string"
        },
        {
          "internalType": "string",
          "name": "_location",
          "type": "string"
        },
        {
          "internalType": "string",
          "name": "_category",
          "type": "string"
        },
        {
          "internalType": "string",
          "name": "_thumbnailHash",
          "type": "string"
        },
        {
          "internalType": "bool",
          "name": "_isAudio",
          "type": "bool"
        },
        {
          "internalType": "string",
          "name": "_date",
          "type": "string"
        }
      ],
      "name": "uploadVideo",
      "outputs": [],
      "stateMutability": "nonpayable",
      "type": "function"
    },
    {
      "inputs": [],
      "name": "videoCount",
      "outputs": [
        {
          "internalType": "uint256",
          "name": "",
          "type": "uint256"
        }
      ],
      "stateMutability": "view",
      "type": "function"
    },
    {
      "inputs": [
        {
          "internalType": "uint256",
          "name": "",
          "type": "uint256"
        }
      ],
      "name": "videos",
      "outputs": [
        {
          "internalType": "uint256",
          "name": "id",
          "type": "uint256"
        },
        {
          "internalType": "string",
          "name": "hash",
          "type": "string"
        },
        {
          "internalType": "string",
          "name": "title",
          "type": "string"
        },
        {
          "internalType": "string",
          "name": "description",
          "type": "string"
        },
        {
          "internalType": "string",
          "name": "location",
          "type": "string"
        },
        {
          "internalType": "string",
          "name": "category",
          "type": "string"
        },
        {
          "internalType": "string",
          "name": "thumbnailHash",
          "type": "string"
        },
        {
          "internalType": "bool",
          "name": "isAudio",
          "type": "bool"
        },
        {
          "internalType": "string",
          "name": "date",
          "type": "string"
        },
        {
          "internalType": "address",
          "name": "author",
          "type": "address"
        }
      ],
      "stateMutability": "view",
      "type": "function"
    }
  ],
  "bytecode": "0x6080604052600080556040518060400160405280601081526020017f4f75727475626520436f6e747261637400000000000000000000000000000000815250600190805190602001906200005592919062000181565b503480156200006357600080fd5b50620000af6040518060400160405280601181526020017f4465706c6f79696e67204f757454756265000000000000000000000000000000815250620000b560201b620008261760201c565b6200035e565b6200015581604051602401620000cc9190620002d5565b6040516020818303038152906040527f41304fac000000000000000000000000000000000000000000000000000000007bffffffffffffffffffffffffffffffffffffffffffffffffffffffff19166020820180517bffffffffffffffffffffffffffffffffffffffffffffffffffffffff83818316178352505050506200015860201b60201c565b50565b60008151905060006a636f6e736f6c652e6c6f679050602083016000808483855afa5050505050565b8280546200018f9062000328565b90600052602060002090601f016020900481019282620001b35760008555620001ff565b82601f10620001ce57805160ff1916838001178555620001ff565b82800160010185558215620001ff579182015b82811115620001fe578251825591602001919060010190620001e1565b5b5090506200020e919062000212565b5090565b5b808211156200022d57600081600090555060010162000213565b5090565b600081519050919050565b600082825260208201905092915050565b60005b838110156200026d57808201518184015260208101905062000250565b838111156200027d576000848401525b50505050565b6000601f19601f8301169050919050565b6000620002a18262000231565b620002ad81856200023c565b9350620002bf8185602086016200024d565b620002ca8162000283565b840191505092915050565b60006020820190508181036000830152620002f1818462000294565b905092915050565b7f4e487b7100000000000000000000000000000000000000000000000000000000600052602260045260246000fd5b600060028204905060018216806200034157607f821691505b60208210811415620003585762000357620002f9565b5b50919050565b610ffa806200036e6000396000f3fe608060405234801561001057600080fd5b506004361061004c5760003560e01c806306fdde0314610051578063b20f24bf1461006f578063c61b5f4c1461008b578063e6821bf5146100a9575b600080fd5b6100596100e2565b6040516100669190610a24565b60405180910390f35b61008960048036038101906100849190610bc7565b610170565b005b6100936103e7565b6040516100a09190610d5a565b60405180910390f35b6100c360048036038101906100be9190610da1565b6103ed565b6040516100d99a99989796959493929190610e1e565b60405180910390f35b600180546100ef90610f1a565b80601f016020809104026020016040519081016040528092919081815260200182805461011b90610f1a565b80156101685780601f1061013d57610100808354040283529160200191610168565b820191906000526020600020905b81548152906001019060200180831161014b57829003601f168201915b505050505081565b600088511161017e57600080fd5b600087511161018c57600080fd5b600073ffffffffffffffffffffffffffffffffffffffff163373ffffffffffffffffffffffffffffffffffffffff1614156101c657600080fd5b6000808154809291906101d890610f7b565b9190505550604051806101400160405280600054815260200189815260200188815260200187815260200186815260200185815260200184815260200183151581526020018281526020013373ffffffffffffffffffffffffffffffffffffffff1681525060026000805481526020019081526020016000206000820151816000015560208201518160010190805190602001906102779291906108e8565b5060408201518160020190805190602001906102949291906108e8565b5060608201518160030190805190602001906102b19291906108e8565b5060808201518160040190805190602001906102ce9291906108e8565b5060a08201518160050190805190602001906102eb9291906108e8565b5060c08201518160060190805190602001906103089291906108e8565b5060e08201518160070160006101000a81548160ff0219169083151502179055506101008201518160080190805190602001906103469291906108e8565b506101208201518160090160006101000a81548173ffffffffffffffffffffffffffffffffffffffff021916908373ffffffffffffffffffffffffffffffffffffffff1602179055509050507f59b01d7253e58066e08807923c0472b8bca64305f2cb0443a998c4c6f7ca8a016000548989898989898989336040516103d59a99989796959493929190610e1e565b60405180910390a15050505050505050565b60005481565b600260205280600052604060002060009150905080600001549080600101805461041690610f1a565b80601f016020809104026020016040519081016040528092919081815260200182805461044290610f1a565b801561048f5780601f106104645761010080835404028352916020019161048f565b820191906000526020600020905b81548152906001019060200180831161047257829003601f168201915b5050505050908060020180546104a490610f1a565b80601f01602080910402602001604051908101604052809291908181526020018280546104d090610f1a565b801561051d5780601f106104f25761010080835404028352916020019161051d565b820191906000526020600020905b81548152906001019060200180831161050057829003601f168201915b50505050509080600301805461053290610f1a565b80601f016020809104026020016040519081016040528092919081815260200182805461055e90610f1a565b80156105ab5780601f10610580576101008083540402835291602001916105ab565b820191906000526020600020905b81548152906001019060200180831161058e57829003601f168201915b5050505050908060040180546105c090610f1a565b80601f01602080910402602001604051908101604052809291908181526020018280546105ec90610f1a565b80156106395780601f1061060e57610100808354040283529160200191610639565b820191906000526020600020905b81548152906001019060200180831161061c57829003601f168201915b50505050509080600501805461064e90610f1a565b80601f016020809104026020016040519081016040528092919081815260200182805461067a90610f1a565b80156106c75780601f1061069c576101008083540402835291602001916106c7565b820191906000526020600020905b8154815290600101906020018083116106aa57829003601f168201915b5050505050908060060180546106dc90610f1a565b80601f016020809104026020016040519081016040528092919081815260200182805461070890610f1a565b80156107555780601f1061072a57610100808354040283529160200191610755565b820191906000526020600020905b81548152906001019060200180831161073857829003601f168201915b5050505050908060070160009054906101000a900460ff169080600801805461077d90610f1a565b80601f01602080910402602001604051908101604052809291908181526020018280546107a990610f1a565b80156107f65780601f106107cb576101008083540402835291602001916107f6565b820191906000526020600020905b8154815290600101906020018083116107d957829003601f168201915b5050505050908060090160009054906101000a900473ffffffffffffffffffffffffffffffffffffffff1690508a565b6108bc8160405160240161083a9190610a24565b6040516020818303038152906040527f41304fac000000000000000000000000000000000000000000000000000000007bffffffffffffffffffffffffffffffffffffffffffffffffffffffff19166020820180517bffffffffffffffffffffffffffffffffffffffffffffffffffffffff83818316178352505050506108bf565b50565b60008151905060006a636f6e736f6c652e6c6f679050602083016000808483855afa5050505050565b8280546108f490610f1a565b90600052602060002090601f016020900481019282610916576000855561095d565b82601f1061092f57805160ff191683800117855561095d565b8280016001018555821561095d579182015b8281111561095c578251825591602001919060010190610941565b5b50905061096a919061096e565b5090565b5b8082111561098757600081600090555060010161096f565b5090565b600081519050919050565b600082825260208201905092915050565b60005b838110156109c55780820151818401526020810190506109aa565b838111156109d4576000848401525b50505050565b6000601f19601f8301169050919050565b60006109f68261098b565b610a008185610996565b9350610a108185602086016109a7565b610a19816109da565b840191505092915050565b60006020820190508181036000830152610a3e81846109eb565b905092915050565b6000604051905090565b600080fd5b600080fd5b600080fd5b600080fd5b7f4e487b7100000000000000000000000000000000000000000000000000000000600052604160045260246000fd5b610a9c826109da565b810181811067ffffffffffffffff82111715610abb57610aba610a64565b5b80604052505050565b6000610ace610a46565b9050610ada8282610a93565b919050565b600067ffffffffffffffff821115610afa57610af9610a64565b5b610b03826109da565b9050602081019050919050565b82818337600083830152505050565b6000610b32610b2d84610adf565b610ac4565b905082815260208101848484011115610b4e57610b4d610a5f565b5b610b59848285610b10565b509392505050565b600082601f830112610b7657610b75610a5a565b5b8135610b86848260208601610b1f565b91505092915050565b60008115159050919050565b610ba481610b8f565b8114610baf57600080fd5b50565b600081359050610bc181610b9b565b92915050565b600080600080600080600080610100898b031215610be857610be7610a50565b5b600089013567ffffffffffffffff811115610c0657610c05610a55565b5b610c128b828c01610b61565b985050602089013567ffffffffffffffff811115610c3357610c32610a55565b5b610c3f8b828c01610b61565b975050604089013567ffffffffffffffff811115610c6057610c5f610a55565b5b610c6c8b828c01610b61565b965050606089013567ffffffffffffffff811115610c8d57610c8c610a55565b5b610c998b828c01610b61565b955050608089013567ffffffffffffffff811115610cba57610cb9610a55565b5b610cc68b828c01610b61565b94505060a089013567ffffffffffffffff811115610ce757610ce6610a55565b5b610cf38b828c01610b61565b93505060c0610d048b828c01610bb2565b92505060e089013567ffffffffffffffff811115610d2557610d24610a55565b5b610d318b828c01610b61565b9150509295985092959890939650565b6000819050919050565b610d5481610d41565b82525050565b6000602082019050610d6f6000830184610d4b565b92915050565b610d7e81610d41565b8114610d8957600080fd5b50565b600081359050610d9b81610d75565b92915050565b600060208284031215610db757610db6610a50565b5b6000610dc584828501610d8c565b91505092915050565b610dd781610b8f565b82525050565b600073ffffffffffffffffffffffffffffffffffffffff82169050919050565b6000610e0882610ddd565b9050919050565b610e1881610dfd565b82525050565b600061014082019050610e34600083018d610d4b565b8181036020830152610e46818c6109eb565b90508181036040830152610e5a818b6109eb565b90508181036060830152610e6e818a6109eb565b90508181036080830152610e8281896109eb565b905081810360a0830152610e9681886109eb565b905081810360c0830152610eaa81876109eb565b9050610eb960e0830186610dce565b818103610100830152610ecc81856109eb565b9050610edc610120830184610e0f565b9b9a5050505050505050505050565b7f4e487b7100000000000000000000000000000000000000000000000000000000600052602260045260246000fd5b60006002820490506001821680610f3257607f821691505b60208210811415610f4657610f45610eeb565b5b50919050565b7f4e487b7100000000000000000000000000000000000000000000000000000000600052601160045260246000fd5b6000610f8682610d41565b91507fffffffffffffffffffffffffffffffffffffffffffffffffffffffffffffffff821415610fb957610fb8610f4c565b5b60018201905091905056fea2646970667358221220e1ad8496b77e6a7b0355b96f17ac24151048e9cdca1b4052c8f990bb97105af264736f6c63430008090033",
  "linkReferences": {},
  "deployedLinkReferences": {}
}